{
  "_format": "hh-sol-artifact-1",
  "contractName": "AchievementNFT",
  "sourceName": "contracts/AchievementNFT.sol",
  "abi": [
    {
      "inputs": [
        {
          "internalType": "string",
          "name": "_baseMetadataURI",
          "type": "string"
        },
        {
          "internalType": "address",
          "name": "initialOwner",
          "type": "address"
        }
      ],
      "stateMutability": "nonpayable",
      "type": "constructor"
    },
    {
      "inputs": [
        {
          "internalType": "address",
          "name": "sender",
          "type": "address"
        },
        {
          "internalType": "uint256",
          "name": "balance",
          "type": "uint256"
        },
        {
          "internalType": "uint256",
          "name": "needed",
          "type": "uint256"
        },
        {
          "internalType": "uint256",
          "name": "tokenId",
          "type": "uint256"
        }
      ],
      "name": "ERC1155InsufficientBalance",
      "type": "error"
    },
    {
      "inputs": [
        {
          "internalType": "address",
          "name": "approver",
          "type": "address"
        }
      ],
      "name": "ERC1155InvalidApprover",
      "type": "error"
    },
    {
      "inputs": [
        {
          "internalType": "uint256",
          "name": "idsLength",
          "type": "uint256"
        },
        {
          "internalType": "uint256",
          "name": "valuesLength",
          "type": "uint256"
        }
      ],
      "name": "ERC1155InvalidArrayLength",
      "type": "error"
    },
    {
      "inputs": [
        {
          "internalType": "address",
          "name": "operator",
          "type": "address"
        }
      ],
      "name": "ERC1155InvalidOperator",
      "type": "error"
    },
    {
      "inputs": [
        {
          "internalType": "address",
          "name": "receiver",
          "type": "address"
        }
      ],
      "name": "ERC1155InvalidReceiver",
      "type": "error"
    },
    {
      "inputs": [
        {
          "internalType": "address",
          "name": "sender",
          "type": "address"
        }
      ],
      "name": "ERC1155InvalidSender",
      "type": "error"
    },
    {
      "inputs": [
        {
          "internalType": "address",
          "name": "operator",
          "type": "address"
        },
        {
          "internalType": "address",
          "name": "owner",
          "type": "address"
        }
      ],
      "name": "ERC1155MissingApprovalForAll",
      "type": "error"
    },
    {
      "inputs": [
        {
          "internalType": "address",
          "name": "owner",
          "type": "address"
        }
      ],
      "name": "OwnableInvalidOwner",
      "type": "error"
    },
    {
      "inputs": [
        {
          "internalType": "address",
          "name": "account",
          "type": "address"
        }
      ],
      "name": "OwnableUnauthorizedAccount",
      "type": "error"
    },
    {
      "anonymous": false,
      "inputs": [
        {
          "indexed": true,
          "internalType": "address",
          "name": "owner",
          "type": "address"
        },
        {
          "indexed": true,
          "internalType": "uint256",
          "name": "tokenId",
          "type": "uint256"
        },
        {
          "indexed": false,
          "internalType": "uint32",
          "name": "appId",
          "type": "uint32"
        },
        {
          "indexed": false,
          "internalType": "string",
          "name": "achievementApiId",
          "type": "string"
        }
      ],
      "name": "AchievementMinted",
      "type": "event"
    },
    {
      "anonymous": false,
      "inputs": [
        {
          "indexed": true,
          "internalType": "address",
          "name": "account",
          "type": "address"
        },
        {
          "indexed": true,
          "internalType": "address",
          "name": "operator",
          "type": "address"
        },
        {
          "indexed": false,
          "internalType": "bool",
          "name": "approved",
          "type": "bool"
        }
      ],
      "name": "ApprovalForAll",
      "type": "event"
    },
    {
      "anonymous": false,
      "inputs": [
        {
          "indexed": true,
          "internalType": "address",
          "name": "previousOwner",
          "type": "address"
        },
        {
          "indexed": true,
          "internalType": "address",
          "name": "newOwner",
          "type": "address"
        }
      ],
      "name": "OwnershipTransferred",
      "type": "event"
    },
    {
      "anonymous": false,
      "inputs": [
        {
          "indexed": true,
          "internalType": "address",
          "name": "operator",
          "type": "address"
        },
        {
          "indexed": true,
          "internalType": "address",
          "name": "from",
          "type": "address"
        },
        {
          "indexed": true,
          "internalType": "address",
          "name": "to",
          "type": "address"
        },
        {
          "indexed": false,
          "internalType": "uint256[]",
          "name": "ids",
          "type": "uint256[]"
        },
        {
          "indexed": false,
          "internalType": "uint256[]",
          "name": "values",
          "type": "uint256[]"
        }
      ],
      "name": "TransferBatch",
      "type": "event"
    },
    {
      "anonymous": false,
      "inputs": [
        {
          "indexed": true,
          "internalType": "address",
          "name": "operator",
          "type": "address"
        },
        {
          "indexed": true,
          "internalType": "address",
          "name": "from",
          "type": "address"
        },
        {
          "indexed": true,
          "internalType": "address",
          "name": "to",
          "type": "address"
        },
        {
          "indexed": false,
          "internalType": "uint256",
          "name": "id",
          "type": "uint256"
        },
        {
          "indexed": false,
          "internalType": "uint256",
          "name": "value",
          "type": "uint256"
        }
      ],
      "name": "TransferSingle",
      "type": "event"
    },
    {
      "anonymous": false,
      "inputs": [
        {
          "indexed": false,
          "internalType": "string",
          "name": "value",
          "type": "string"
        },
        {
          "indexed": true,
          "internalType": "uint256",
          "name": "id",
          "type": "uint256"
        }
      ],
      "name": "URI",
      "type": "event"
    },
    {
      "inputs": [
        {
          "internalType": "address",
          "name": "account",
          "type": "address"
        },
        {
          "internalType": "uint256",
          "name": "id",
          "type": "uint256"
        }
      ],
      "name": "balanceOf",
      "outputs": [
        {
          "internalType": "uint256",
          "name": "",
          "type": "uint256"
        }
      ],
      "stateMutability": "view",
      "type": "function"
    },
    {
      "inputs": [
        {
          "internalType": "address[]",
          "name": "accounts",
          "type": "address[]"
        },
        {
          "internalType": "uint256[]",
          "name": "ids",
          "type": "uint256[]"
        }
      ],
      "name": "balanceOfBatch",
      "outputs": [
        {
          "internalType": "uint256[]",
          "name": "",
          "type": "uint256[]"
        }
      ],
      "stateMutability": "view",
      "type": "function"
    },
    {
      "inputs": [],
      "name": "baseMetadataURI",
      "outputs": [
        {
          "internalType": "string",
          "name": "",
          "type": "string"
        }
      ],
      "stateMutability": "view",
      "type": "function"
    },
    {
      "inputs": [
        {
          "internalType": "address",
          "name": "account",
          "type": "address"
        },
        {
          "internalType": "address",
          "name": "operator",
          "type": "address"
        }
      ],
      "name": "isApprovedForAll",
      "outputs": [
        {
          "internalType": "bool",
          "name": "",
          "type": "bool"
        }
      ],
      "stateMutability": "view",
      "type": "function"
    },
    {
      "inputs": [
        {
          "internalType": "address",
          "name": "to",
          "type": "address"
        },
        {
          "internalType": "uint256",
          "name": "tokenId",
          "type": "uint256"
        },
        {
          "internalType": "uint32",
          "name": "appId",
          "type": "uint32"
        },
        {
          "internalType": "string",
          "name": "achievementApiId",
          "type": "string"
        },
        {
          "internalType": "bytes",
          "name": "data",
          "type": "bytes"
        }
      ],
      "name": "mintAchievement",
      "outputs": [],
      "stateMutability": "nonpayable",
      "type": "function"
    },
    {
      "inputs": [],
      "name": "owner",
      "outputs": [
        {
          "internalType": "address",
          "name": "",
          "type": "address"
        }
      ],
      "stateMutability": "view",
      "type": "function"
    },
    {
      "inputs": [],
      "name": "renounceOwnership",
      "outputs": [],
      "stateMutability": "nonpayable",
      "type": "function"
    },
    {
      "inputs": [
        {
          "internalType": "address",
          "name": "from",
          "type": "address"
        },
        {
          "internalType": "address",
          "name": "to",
          "type": "address"
        },
        {
          "internalType": "uint256[]",
          "name": "ids",
          "type": "uint256[]"
        },
        {
          "internalType": "uint256[]",
          "name": "values",
          "type": "uint256[]"
        },
        {
          "internalType": "bytes",
          "name": "data",
          "type": "bytes"
        }
      ],
      "name": "safeBatchTransferFrom",
      "outputs": [],
      "stateMutability": "nonpayable",
      "type": "function"
    },
    {
      "inputs": [
        {
          "internalType": "address",
          "name": "from",
          "type": "address"
        },
        {
          "internalType": "address",
          "name": "to",
          "type": "address"
        },
        {
          "internalType": "uint256",
          "name": "id",
          "type": "uint256"
        },
        {
          "internalType": "uint256",
          "name": "value",
          "type": "uint256"
        },
        {
          "internalType": "bytes",
          "name": "data",
          "type": "bytes"
        }
      ],
      "name": "safeTransferFrom",
      "outputs": [],
      "stateMutability": "nonpayable",
      "type": "function"
    },
    {
      "inputs": [
        {
          "internalType": "address",
          "name": "operator",
          "type": "address"
        },
        {
          "internalType": "bool",
          "name": "approved",
          "type": "bool"
        }
      ],
      "name": "setApprovalForAll",
      "outputs": [],
      "stateMutability": "nonpayable",
      "type": "function"
    },
    {
      "inputs": [
        {
          "internalType": "string",
          "name": "newBaseMetadataURI",
          "type": "string"
        }
      ],
      "name": "setBaseURI",
      "outputs": [],
      "stateMutability": "nonpayable",
      "type": "function"
    },
    {
      "inputs": [
        {
          "internalType": "bytes4",
          "name": "interfaceId",
          "type": "bytes4"
        }
      ],
      "name": "supportsInterface",
      "outputs": [
        {
          "internalType": "bool",
          "name": "",
          "type": "bool"
        }
      ],
      "stateMutability": "view",
      "type": "function"
    },
    {
      "inputs": [
        {
          "internalType": "address",
          "name": "newOwner",
          "type": "address"
        }
      ],
      "name": "transferOwnership",
      "outputs": [],
      "stateMutability": "nonpayable",
      "type": "function"
    },
    {
      "inputs": [
        {
          "internalType": "uint256",
          "name": "tokenId",
          "type": "uint256"
        }
      ],
      "name": "uri",
      "outputs": [
        {
          "internalType": "string",
          "name": "",
          "type": "string"
        }
      ],
      "stateMutability": "view",
      "type": "function"
    }
  ],
  "bytecode": "0x60806040523480156200001157600080fd5b50604051620034e5380380620034e58339818101604052810190620000379190620003bf565b80826200004a81620000ec60201b60201c565b50600073ffffffffffffffffffffffffffffffffffffffff168173ffffffffffffffffffffffffffffffffffffffff1603620000c05760006040517f1e4fbdf7000000000000000000000000000000000000000000000000000000008152600401620000b7919062000436565b60405180910390fd5b620000d1816200010160201b60201c565b508160049081620000e391906200069e565b50505062000785565b8060029081620000fd91906200069e565b5050565b6000600360009054906101000a900473ffffffffffffffffffffffffffffffffffffffff16905081600360006101000a81548173ffffffffffffffffffffffffffffffffffffffff021916908373ffffffffffffffffffffffffffffffffffffffff1602179055508173ffffffffffffffffffffffffffffffffffffffff168173ffffffffffffffffffffffffffffffffffffffff167f8be0079c531659141344cd1fd0a4f28419497f9722a3daafe3b4186f6b6457e060405160405180910390a35050565b6000604051905090565b600080fd5b600080fd5b600080fd5b600080fd5b6000601f19601f8301169050919050565b7f4e487b7100000000000000000000000000000000000000000000000000000000600052604160045260246000fd5b6200023082620001e5565b810181811067ffffffffffffffff82111715620002525762000251620001f6565b5b80604052505050565b600062000267620001c7565b905062000275828262000225565b919050565b600067ffffffffffffffff821115620002985762000297620001f6565b5b620002a382620001e5565b9050602081019050919050565b60005b83811015620002d0578082015181840152602081019050620002b3565b60008484015250505050565b6000620002f3620002ed846200027a565b6200025b565b905082815260208101848484011115620003125762000311620001e0565b5b6200031f848285620002b0565b509392505050565b600082601f8301126200033f576200033e620001db565b5b815162000351848260208601620002dc565b91505092915050565b600073ffffffffffffffffffffffffffffffffffffffff82169050919050565b600062000387826200035a565b9050919050565b62000399816200037a565b8114620003a557600080fd5b50565b600081519050620003b9816200038e565b92915050565b60008060408385031215620003d957620003d8620001d1565b5b600083015167ffffffffffffffff811115620003fa57620003f9620001d6565b5b620004088582860162000327565b92505060206200041b85828601620003a8565b9150509250929050565b62000430816200037a565b82525050565b60006020820190506200044d600083018462000425565b92915050565b600081519050919050565b7f4e487b7100000000000000000000000000000000000000000000000000000000600052602260045260246000fd5b60006002820490506001821680620004a657607f821691505b602082108103620004bc57620004bb6200045e565b5b50919050565b60008190508160005260206000209050919050565b60006020601f8301049050919050565b600082821b905092915050565b600060088302620005267fffffffffffffffffffffffffffffffffffffffffffffffffffffffffffffffff82620004e7565b620005328683620004e7565b95508019841693508086168417925050509392505050565b6000819050919050565b6000819050919050565b60006200057f6200057962000573846200054a565b62000554565b6200054a565b9050919050565b6000819050919050565b6200059b836200055e565b620005b3620005aa8262000586565b848454620004f4565b825550505050565b600090565b620005ca620005bb565b620005d781848462000590565b505050565b5b81811015620005ff57620005f3600082620005c0565b600181019050620005dd565b5050565b601f8211156200064e576200061881620004c2565b6200062384620004d7565b8101602085101562000633578190505b6200064b6200064285620004d7565b830182620005dc565b50505b505050565b600082821c905092915050565b6000620006736000198460080262000653565b1980831691505092915050565b60006200068e838362000660565b9150826002028217905092915050565b620006a98262000453565b67ffffffffffffffff811115620006c557620006c4620001f6565b5b620006d182546200048d565b620006de82828562000603565b600060209050601f83116001811462000716576000841562000701578287015190505b6200070d858262000680565b8655506200077d565b601f1984166200072686620004c2565b60005b82811015620007505784890151825560018201915060208501945060208101905062000729565b868310156200077057848901516200076c601f89168262000660565b8355505b6001600288020188555050505b505050505050565b612d5080620007956000396000f3fe608060405234801561001057600080fd5b50600436106100e95760003560e01c8063715018a61161008c578063e985e9c511610066578063e985e9c514610248578063f242432a14610278578063f2fde38b14610294578063f3bbf782146102b0576100e9565b8063715018a6146102045780638da5cb5b1461020e578063a22cb4651461022c576100e9565b80632eb2c2d6116100c85780632eb2c2d61461017e5780634e1273f41461019a57806355f804b3146101ca5780635b2bd79e146101e6576100e9565b8062fdd58e146100ee57806301ffc9a71461011e5780630e89341c1461014e575b600080fd5b61010860048036038101906101039190611a68565b6102cc565b6040516101159190611ab7565b60405180910390f35b61013860048036038101906101339190611b2a565b610326565b6040516101459190611b72565b60405180910390f35b61016860048036038101906101639190611b8d565b610408565b6040516101759190611c4a565b60405180910390f35b61019860048036038101906101939190611e69565b61048d565b005b6101b460048036038101906101af9190611ffb565b610535565b6040516101c19190612131565b60405180910390f35b6101e460048036038101906101df91906121f4565b610644565b005b6101ee61065f565b6040516101fb9190611c4a565b60405180910390f35b61020c6106ed565b005b610216610701565b604051610223919061224c565b60405180910390f35b61024660048036038101906102419190612293565b61072b565b005b610262600480360381019061025d91906122d3565b610741565b60405161026f9190611b72565b60405180910390f35b610292600480360381019061028d9190612313565b6107d5565b005b6102ae60048036038101906102a991906123aa565b61087d565b005b6102ca60048036038101906102c59190612413565b610903565b005b600080600083815260200190815260200160002060008473ffffffffffffffffffffffffffffffffffffffff1673ffffffffffffffffffffffffffffffffffffffff16815260200190815260200160002054905092915050565b60007fd9b67a26000000000000000000000000000000000000000000000000000000007bffffffffffffffffffffffffffffffffffffffffffffffffffffffff1916827bffffffffffffffffffffffffffffffffffffffffffffffffffffffff191614806103f157507f0e89341c000000000000000000000000000000000000000000000000000000007bffffffffffffffffffffffffffffffffffffffffffffffffffffffff1916827bffffffffffffffffffffffffffffffffffffffffffffffffffffffff1916145b806104015750610400826109b4565b5b9050919050565b6060600060048054610419906124f5565b90501161045b576040517f08c379a000000000000000000000000000000000000000000000000000000000815260040161045290612598565b60405180910390fd5b600461046683610a1e565b60405160200161047792919061268c565b6040516020818303038152906040529050919050565b6000610497610aec565b90508073ffffffffffffffffffffffffffffffffffffffff168673ffffffffffffffffffffffffffffffffffffffff16141580156104dc57506104da8682610741565b155b156105205780866040517fe237d9220000000000000000000000000000000000000000000000000000000081526004016105179291906126b0565b60405180910390fd5b61052d8686868686610af4565b505050505050565b6060815183511461058157815183516040517f5b0599910000000000000000000000000000000000000000000000000000000081526004016105789291906126d9565b60405180910390fd5b6000835167ffffffffffffffff81111561059e5761059d611c71565b5b6040519080825280602002602001820160405280156105cc5781602001602082028036833780820191505090505b50905060005b8451811015610639576106096105f18287610bec90919063ffffffff16565b6106048387610c0090919063ffffffff16565b6102cc565b82828151811061061c5761061b612702565b5b6020026020010181815250508061063290612760565b90506105d2565b508091505092915050565b61064c610c14565b806004908161065b919061293f565b5050565b6004805461066c906124f5565b80601f0160208091040260200160405190810160405280929190818152602001828054610698906124f5565b80156106e55780601f106106ba576101008083540402835291602001916106e5565b820191906000526020600020905b8154815290600101906020018083116106c857829003601f168201915b505050505081565b6106f5610c14565b6106ff6000610c9b565b565b6000600360009054906101000a900473ffffffffffffffffffffffffffffffffffffffff16905090565b61073d610736610aec565b8383610d61565b5050565b6000600160008473ffffffffffffffffffffffffffffffffffffffff1673ffffffffffffffffffffffffffffffffffffffff16815260200190815260200160002060008373ffffffffffffffffffffffffffffffffffffffff1673ffffffffffffffffffffffffffffffffffffffff16815260200190815260200160002060009054906101000a900460ff16905092915050565b60006107df610aec565b90508073ffffffffffffffffffffffffffffffffffffffff168673ffffffffffffffffffffffffffffffffffffffff161415801561082457506108228682610741565b155b156108685780866040517fe237d92200000000000000000000000000000000000000000000000000000000815260040161085f9291906126b0565b60405180910390fd5b6108758686868686610ed1565b505050505050565b610885610c14565b600073ffffffffffffffffffffffffffffffffffffffff168173ffffffffffffffffffffffffffffffffffffffff16036108f75760006040517f1e4fbdf70000000000000000000000000000000000000000000000000000000081526004016108ee919061224c565b60405180910390fd5b61090081610c9b565b50565b600061090f86866102cc565b1461094f576040517f08c379a000000000000000000000000000000000000000000000000000000000815260040161094690612a83565b60405180910390fd5b61095c8585600184610fdc565b838573ffffffffffffffffffffffffffffffffffffffff167f39090cc663d1496836876d62628d8ee017ec4accb84cee83a2fe36c0fe72fe3185856040516109a5929190612ab2565b60405180910390a35050505050565b60007f01ffc9a7000000000000000000000000000000000000000000000000000000007bffffffffffffffffffffffffffffffffffffffffffffffffffffffff1916827bffffffffffffffffffffffffffffffffffffffffffffffffffffffff1916149050919050565b606060006001610a2d84611075565b01905060008167ffffffffffffffff811115610a4c57610a4b611c71565b5b6040519080825280601f01601f191660200182016040528015610a7e5781602001600182028036833780820191505090505b509050600082602001820190505b600115610ae1578080600190039150507f3031323334353637383961626364656600000000000000000000000000000000600a86061a8153600a8581610ad557610ad4612ae2565b5b04945060008503610a8c575b819350505050919050565b600033905090565b600073ffffffffffffffffffffffffffffffffffffffff168473ffffffffffffffffffffffffffffffffffffffff1603610b665760006040517f57f447ce000000000000000000000000000000000000000000000000000000008152600401610b5d919061224c565b60405180910390fd5b600073ffffffffffffffffffffffffffffffffffffffff168573ffffffffffffffffffffffffffffffffffffffff1603610bd85760006040517f01a83514000000000000000000000000000000000000000000000000000000008152600401610bcf919061224c565b60405180910390fd5b610be585858585856111c8565b5050505050565b600060208202602084010151905092915050565b600060208202602084010151905092915050565b610c1c610aec565b73ffffffffffffffffffffffffffffffffffffffff16610c3a610701565b73ffffffffffffffffffffffffffffffffffffffff1614610c9957610c5d610aec565b6040517f118cdaa7000000000000000000000000000000000000000000000000000000008152600401610c90919061224c565b60405180910390fd5b565b6000600360009054906101000a900473ffffffffffffffffffffffffffffffffffffffff16905081600360006101000a81548173ffffffffffffffffffffffffffffffffffffffff021916908373ffffffffffffffffffffffffffffffffffffffff1602179055508173ffffffffffffffffffffffffffffffffffffffff168173ffffffffffffffffffffffffffffffffffffffff167f8be0079c531659141344cd1fd0a4f28419497f9722a3daafe3b4186f6b6457e060405160405180910390a35050565b600073ffffffffffffffffffffffffffffffffffffffff168273ffffffffffffffffffffffffffffffffffffffff1603610dd35760006040517fced3e100000000000000000000000000000000000000000000000000000000008152600401610dca919061224c565b60405180910390fd5b80600160008573ffffffffffffffffffffffffffffffffffffffff1673ffffffffffffffffffffffffffffffffffffffff16815260200190815260200160002060008473ffffffffffffffffffffffffffffffffffffffff1673ffffffffffffffffffffffffffffffffffffffff16815260200190815260200160002060006101000a81548160ff0219169083151502179055508173ffffffffffffffffffffffffffffffffffffffff168373ffffffffffffffffffffffffffffffffffffffff167f17307eab39ab6107e8899845ad3d59bd9653f200f220920489ca2b5937696c3183604051610ec49190611b72565b60405180910390a3505050565b600073ffffffffffffffffffffffffffffffffffffffff168473ffffffffffffffffffffffffffffffffffffffff1603610f435760006040517f57f447ce000000000000000000000000000000000000000000000000000000008152600401610f3a919061224c565b60405180910390fd5b600073ffffffffffffffffffffffffffffffffffffffff168573ffffffffffffffffffffffffffffffffffffffff1603610fb55760006040517f01a83514000000000000000000000000000000000000000000000000000000008152600401610fac919061224c565b60405180910390fd5b600080610fc2858561127a565b91509150610fd387878484876111c8565b50505050505050565b600073ffffffffffffffffffffffffffffffffffffffff168473ffffffffffffffffffffffffffffffffffffffff160361104e5760006040517f57f447ce000000000000000000000000000000000000000000000000000000008152600401611045919061224c565b60405180910390fd5b60008061105b858561127a565b9150915061106d6000878484876111c8565b505050505050565b600080600090507a184f03e93ff9f4daa797ed6e38ed64bf6a1f01000000000000000083106110d3577a184f03e93ff9f4daa797ed6e38ed64bf6a1f01000000000000000083816110c9576110c8612ae2565b5b0492506040810190505b6d04ee2d6d415b85acef81000000008310611110576d04ee2d6d415b85acef8100000000838161110657611105612ae2565b5b0492506020810190505b662386f26fc10000831061113f57662386f26fc10000838161113557611134612ae2565b5b0492506010810190505b6305f5e1008310611168576305f5e100838161115e5761115d612ae2565b5b0492506008810190505b612710831061118d57612710838161118357611182612ae2565b5b0492506004810190505b606483106111b057606483816111a6576111a5612ae2565b5b0492506002810190505b600a83106111bf576001810190505b80915050919050565b6111d4858585856112aa565b600073ffffffffffffffffffffffffffffffffffffffff168473ffffffffffffffffffffffffffffffffffffffff1614611273576000611212610aec565b90506001845103611262576000611233600086610c0090919063ffffffff16565b9050600061124b600086610c0090919063ffffffff16565b905061125b838989858589611658565b5050611271565b61127081878787878761180c565b5b505b5050505050565b60608060405191506001825283602083015260408201905060018152826020820152604081016040529250929050565b80518251146112f457815181516040517f5b0599910000000000000000000000000000000000000000000000000000000081526004016112eb9291906126d9565b60405180910390fd5b60006112fe610aec565b905060005b83518110156115135760006113218286610c0090919063ffffffff16565b905060006113388386610c0090919063ffffffff16565b9050600073ffffffffffffffffffffffffffffffffffffffff168873ffffffffffffffffffffffffffffffffffffffff161461146557600080600084815260200190815260200160002060008a73ffffffffffffffffffffffffffffffffffffffff1673ffffffffffffffffffffffffffffffffffffffff1681526020019081526020016000205490508181101561140d57888183856040517f03dee4c50000000000000000000000000000000000000000000000000000000081526004016114049493929190612b11565b60405180910390fd5b81810360008085815260200190815260200160002060008b73ffffffffffffffffffffffffffffffffffffffff1673ffffffffffffffffffffffffffffffffffffffff16815260200190815260200160002081905550505b600073ffffffffffffffffffffffffffffffffffffffff168773ffffffffffffffffffffffffffffffffffffffff1614611500578060008084815260200190815260200160002060008973ffffffffffffffffffffffffffffffffffffffff1673ffffffffffffffffffffffffffffffffffffffff16815260200190815260200160002060008282546114f89190612b56565b925050819055505b50508061150c90612760565b9050611303565b5060018351036115d2576000611533600085610c0090919063ffffffff16565b9050600061154b600085610c0090919063ffffffff16565b90508573ffffffffffffffffffffffffffffffffffffffff168773ffffffffffffffffffffffffffffffffffffffff168473ffffffffffffffffffffffffffffffffffffffff167fc3d58168c5ae7397731d063d5bbf3d657854427343f4c083240f7aacaa2d0f6285856040516115c39291906126d9565b60405180910390a45050611651565b8373ffffffffffffffffffffffffffffffffffffffff168573ffffffffffffffffffffffffffffffffffffffff168273ffffffffffffffffffffffffffffffffffffffff167f4a39dc06d4c0dbc64b70af90fd698a233a518aa5d07e595d983b8c0526c8f7fb8686604051611648929190612b8a565b60405180910390a45b5050505050565b60008473ffffffffffffffffffffffffffffffffffffffff163b1115611804578373ffffffffffffffffffffffffffffffffffffffff1663f23a6e6187878686866040518663ffffffff1660e01b81526004016116b9959493929190612c16565b6020604051808303816000875af19250505080156116f557506040513d601f19601f820116820180604052508101906116f29190612c85565b60015b611779573d8060008114611725576040519150601f19603f3d011682016040523d82523d6000602084013e61172a565b606091505b50600081510361177157846040517f57f447ce000000000000000000000000000000000000000000000000000000008152600401611768919061224c565b60405180910390fd5b805181602001fd5b63f23a6e6160e01b7bffffffffffffffffffffffffffffffffffffffffffffffffffffffff1916817bffffffffffffffffffffffffffffffffffffffffffffffffffffffff19161461180257846040517f57f447ce0000000000000000000000000000000000000000000000000000000081526004016117f9919061224c565b60405180910390fd5b505b505050505050565b60008473ffffffffffffffffffffffffffffffffffffffff163b11156119b8578373ffffffffffffffffffffffffffffffffffffffff1663bc197c8187878686866040518663ffffffff1660e01b815260040161186d959493929190612cb2565b6020604051808303816000875af19250505080156118a957506040513d601f19601f820116820180604052508101906118a69190612c85565b60015b61192d573d80600081146118d9576040519150601f19603f3d011682016040523d82523d6000602084013e6118de565b606091505b50600081510361192557846040517f57f447ce00000000000000000000000000000000000000000000000000000000815260040161191c919061224c565b60405180910390fd5b805181602001fd5b63bc197c8160e01b7bffffffffffffffffffffffffffffffffffffffffffffffffffffffff1916817bffffffffffffffffffffffffffffffffffffffffffffffffffffffff1916146119b657846040517f57f447ce0000000000000000000000000000000000000000000000000000000081526004016119ad919061224c565b60405180910390fd5b505b505050505050565b6000604051905090565b600080fd5b600080fd5b600073ffffffffffffffffffffffffffffffffffffffff82169050919050565b60006119ff826119d4565b9050919050565b611a0f816119f4565b8114611a1a57600080fd5b50565b600081359050611a2c81611a06565b92915050565b6000819050919050565b611a4581611a32565b8114611a5057600080fd5b50565b600081359050611a6281611a3c565b92915050565b60008060408385031215611a7f57611a7e6119ca565b5b6000611a8d85828601611a1d565b9250506020611a9e85828601611a53565b9150509250929050565b611ab181611a32565b82525050565b6000602082019050611acc6000830184611aa8565b92915050565b60007fffffffff0000000000000000000000000000000000000000000000000000000082169050919050565b611b0781611ad2565b8114611b1257600080fd5b50565b600081359050611b2481611afe565b92915050565b600060208284031215611b4057611b3f6119ca565b5b6000611b4e84828501611b15565b91505092915050565b60008115159050919050565b611b6c81611b57565b82525050565b6000602082019050611b876000830184611b63565b92915050565b600060208284031215611ba357611ba26119ca565b5b6000611bb184828501611a53565b91505092915050565b600081519050919050565b600082825260208201905092915050565b60005b83811015611bf4578082015181840152602081019050611bd9565b60008484015250505050565b6000601f19601f8301169050919050565b6000611c1c82611bba565b611c268185611bc5565b9350611c36818560208601611bd6565b611c3f81611c00565b840191505092915050565b60006020820190508181036000830152611c648184611c11565b905092915050565b600080fd5b7f4e487b7100000000000000000000000000000000000000000000000000000000600052604160045260246000fd5b611ca982611c00565b810181811067ffffffffffffffff82111715611cc857611cc7611c71565b5b80604052505050565b6000611cdb6119c0565b9050611ce78282611ca0565b919050565b600067ffffffffffffffff821115611d0757611d06611c71565b5b602082029050602081019050919050565b600080fd5b6000611d30611d2b84611cec565b611cd1565b90508083825260208201905060208402830185811115611d5357611d52611d18565b5b835b81811015611d7c5780611d688882611a53565b845260208401935050602081019050611d55565b5050509392505050565b600082601f830112611d9b57611d9a611c6c565b5b8135611dab848260208601611d1d565b91505092915050565b600080fd5b600067ffffffffffffffff821115611dd457611dd3611c71565b5b611ddd82611c00565b9050602081019050919050565b82818337600083830152505050565b6000611e0c611e0784611db9565b611cd1565b905082815260208101848484011115611e2857611e27611db4565b5b611e33848285611dea565b509392505050565b600082601f830112611e5057611e4f611c6c565b5b8135611e60848260208601611df9565b91505092915050565b600080600080600060a08688031215611e8557611e846119ca565b5b6000611e9388828901611a1d565b9550506020611ea488828901611a1d565b945050604086013567ffffffffffffffff811115611ec557611ec46119cf565b5b611ed188828901611d86565b935050606086013567ffffffffffffffff811115611ef257611ef16119cf565b5b611efe88828901611d86565b925050608086013567ffffffffffffffff811115611f1f57611f1e6119cf565b5b611f2b88828901611e3b565b9150509295509295909350565b600067ffffffffffffffff821115611f5357611f52611c71565b5b602082029050602081019050919050565b6000611f77611f7284611f38565b611cd1565b90508083825260208201905060208402830185811115611f9a57611f99611d18565b5b835b81811015611fc35780611faf8882611a1d565b845260208401935050602081019050611f9c565b5050509392505050565b600082601f830112611fe257611fe1611c6c565b5b8135611ff2848260208601611f64565b91505092915050565b60008060408385031215612012576120116119ca565b5b600083013567ffffffffffffffff8111156120305761202f6119cf565b5b61203c85828601611fcd565b925050602083013567ffffffffffffffff81111561205d5761205c6119cf565b5b61206985828601611d86565b9150509250929050565b600081519050919050565b600082825260208201905092915050565b6000819050602082019050919050565b6120a881611a32565b82525050565b60006120ba838361209f565b60208301905092915050565b6000602082019050919050565b60006120de82612073565b6120e8818561207e565b93506120f38361208f565b8060005b8381101561212457815161210b88826120ae565b9750612116836120c6565b9250506001810190506120f7565b5085935050505092915050565b6000602082019050818103600083015261214b81846120d3565b905092915050565b600067ffffffffffffffff82111561216e5761216d611c71565b5b61217782611c00565b9050602081019050919050565b600061219761219284612153565b611cd1565b9050828152602081018484840111156121b3576121b2611db4565b5b6121be848285611dea565b509392505050565b600082601f8301126121db576121da611c6c565b5b81356121eb848260208601612184565b91505092915050565b60006020828403121561220a576122096119ca565b5b600082013567ffffffffffffffff811115612228576122276119cf565b5b612234848285016121c6565b91505092915050565b612246816119f4565b82525050565b6000602082019050612261600083018461223d565b92915050565b61227081611b57565b811461227b57600080fd5b50565b60008135905061228d81612267565b92915050565b600080604083850312156122aa576122a96119ca565b5b60006122b885828601611a1d565b92505060206122c98582860161227e565b9150509250929050565b600080604083850312156122ea576122e96119ca565b5b60006122f885828601611a1d565b925050602061230985828601611a1d565b9150509250929050565b600080600080600060a0868803121561232f5761232e6119ca565b5b600061233d88828901611a1d565b955050602061234e88828901611a1d565b945050604061235f88828901611a53565b935050606061237088828901611a53565b925050608086013567ffffffffffffffff811115612391576123906119cf565b5b61239d88828901611e3b565b9150509295509295909350565b6000602082840312156123c0576123bf6119ca565b5b60006123ce84828501611a1d565b91505092915050565b600063ffffffff82169050919050565b6123f0816123d7565b81146123fb57600080fd5b50565b60008135905061240d816123e7565b92915050565b600080600080600060a0868803121561242f5761242e6119ca565b5b600061243d88828901611a1d565b955050602061244e88828901611a53565b945050604061245f888289016123fe565b935050606086013567ffffffffffffffff8111156124805761247f6119cf565b5b61248c888289016121c6565b925050608086013567ffffffffffffffff8111156124ad576124ac6119cf565b5b6124b988828901611e3b565b9150509295509295909350565b7f4e487b7100000000000000000000000000000000000000000000000000000000600052602260045260246000fd5b6000600282049050600182168061250d57607f821691505b6020821081036125205761251f6124c6565b5b50919050565b7f455243313135354d657461646174613a206261736520555249206e6f7420736560008201527f7400000000000000000000000000000000000000000000000000000000000000602082015250565b6000612582602183611bc5565b915061258d82612526565b604082019050919050565b600060208201905081810360008301526125b181612575565b9050919050565b600081905092915050565b60008190508160005260206000209050919050565b600081546125e5816124f5565b6125ef81866125b8565b9450600182166000811461260a576001811461261f57612652565b60ff1983168652811515820286019350612652565b612628856125c3565b60005b8381101561264a5781548189015260018201915060208101905061262b565b838801955050505b50505092915050565b600061266682611bba565b61267081856125b8565b9350612680818560208601611bd6565b80840191505092915050565b600061269882856125d8565b91506126a4828461265b565b91508190509392505050565b60006040820190506126c5600083018561223d565b6126d2602083018461223d565b9392505050565b60006040820190506126ee6000830185611aa8565b6126fb6020830184611aa8565b9392505050565b7f4e487b7100000000000000000000000000000000000000000000000000000000600052603260045260246000fd5b7f4e487b7100000000000000000000000000000000000000000000000000000000600052601160045260246000fd5b600061276b82611a32565b91507fffffffffffffffffffffffffffffffffffffffffffffffffffffffffffffffff820361279d5761279c612731565b5b600182019050919050565b60006020601f8301049050919050565b600082821b905092915050565b6000600883026127f57fffffffffffffffffffffffffffffffffffffffffffffffffffffffffffffffff826127b8565b6127ff86836127b8565b95508019841693508086168417925050509392505050565b6000819050919050565b600061283c61283761283284611a32565b612817565b611a32565b9050919050565b6000819050919050565b61285683612821565b61286a61286282612843565b8484546127c5565b825550505050565b600090565b61287f612872565b61288a81848461284d565b505050565b5b818110156128ae576128a3600082612877565b600181019050612890565b5050565b601f8211156128f3576128c4816125c3565b6128cd846127a8565b810160208510156128dc578190505b6128f06128e8856127a8565b83018261288f565b50505b505050565b600082821c905092915050565b6000612916600019846008026128f8565b1980831691505092915050565b600061292f8383612905565b9150826002028217905092915050565b61294882611bba565b67ffffffffffffffff81111561296157612960611c71565b5b61296b82546124f5565b6129768282856128b2565b600060209050601f8311600181146129a95760008415612997578287015190505b6129a18582612923565b865550612a09565b601f1984166129b7866125c3565b60005b828110156129df578489015182556001820191506020850194506020810190506129ba565b868310156129fc57848901516129f8601f891682612905565b8355505b6001600288020188555050505b505050505050565b7f416368696576656d656e744e46543a20416c7265616479206d696e746564207460008201527f68697320616368696576656d656e740000000000000000000000000000000000602082015250565b6000612a6d602f83611bc5565b9150612a7882612a11565b604082019050919050565b60006020820190508181036000830152612a9c81612a60565b9050919050565b612aac816123d7565b82525050565b6000604082019050612ac76000830185612aa3565b8181036020830152612ad98184611c11565b90509392505050565b7f4e487b7100000000000000000000000000000000000000000000000000000000600052601260045260246000fd5b6000608082019050612b26600083018761223d565b612b336020830186611aa8565b612b406040830185611aa8565b612b4d6060830184611aa8565b95945050505050565b6000612b6182611a32565b9150612b6c83611a32565b9250828201905080821115612b8457612b83612731565b5b92915050565b60006040820190508181036000830152612ba481856120d3565b90508181036020830152612bb881846120d3565b90509392505050565b600081519050919050565b600082825260208201905092915050565b6000612be882612bc1565b612bf28185612bcc565b9350612c02818560208601611bd6565b612c0b81611c00565b840191505092915050565b600060a082019050612c2b600083018861223d565b612c38602083018761223d565b612c456040830186611aa8565b612c526060830185611aa8565b8181036080830152612c648184612bdd565b90509695505050505050565b600081519050612c7f81611afe565b92915050565b600060208284031215612c9b57612c9a6119ca565b5b6000612ca984828501612c70565b91505092915050565b600060a082019050612cc7600083018861223d565b612cd4602083018761223d565b8181036040830152612ce681866120d3565b90508181036060830152612cfa81856120d3565b90508181036080830152612d0e8184612bdd565b9050969550505050505056fea26469706673582212209b511e0898b505306c70daa24ba1e8da64ddb8fa671d302550660419c49607d164736f6c63430008140033",
  "linkReferences": {},
  "deployedLinkReferences": {}
}